{
  "contractName": "BasicToken",
  "abi": [
    {
      "constant": true,
      "inputs": [],
      "name": "NAME",
      "outputs": [
        {
          "name": "",
          "type": "string"
        }
      ],
      "payable": false,
      "stateMutability": "view",
      "type": "function"
    },
    {
      "constant": true,
      "inputs": [],
      "name": "SYMBOL",
      "outputs": [
        {
          "name": "",
          "type": "string"
        }
      ],
      "payable": false,
      "stateMutability": "view",
      "type": "function"
    },
    {
      "inputs": [
        {
          "name": "INTIAL_SUPPLY",
          "type": "uint256"
        }
      ],
      "payable": false,
      "stateMutability": "nonpayable",
      "type": "constructor"
    },
    {
      "anonymous": false,
      "inputs": [
        {
          "indexed": true,
          "name": "from",
          "type": "address"
        },
        {
          "indexed": true,
          "name": "to",
          "type": "address"
        },
        {
          "indexed": false,
          "name": "values",
          "type": "uint256"
        }
      ],
      "name": "Transfer",
      "type": "event"
    },
    {
      "constant": true,
      "inputs": [],
      "name": "totalSupply",
      "outputs": [
        {
          "name": "",
          "type": "uint256"
        }
      ],
      "payable": false,
      "stateMutability": "view",
      "type": "function"
    },
    {
      "constant": false,
      "inputs": [
        {
          "name": "_to",
          "type": "address"
        },
        {
          "name": "_value",
          "type": "uint256"
        }
      ],
      "name": "transfer",
      "outputs": [
        {
          "name": "",
          "type": "bool"
        }
      ],
      "payable": false,
      "stateMutability": "nonpayable",
      "type": "function"
    },
    {
      "constant": true,
      "inputs": [
        {
          "name": "_owner",
          "type": "address"
        }
      ],
      "name": "balanceOf",
      "outputs": [
        {
          "name": "balance",
          "type": "uint256"
        }
      ],
      "payable": false,
      "stateMutability": "view",
      "type": "function"
    }
  ],
  "bytecode": "0x608060405234801561001057600080fd5b506040516020806107178339810180604052810190808051906020019092919050505080600181905550806000803373ffffffffffffffffffffffffffffffffffffffff1673ffffffffffffffffffffffffffffffffffffffff168152602001908152602001600020819055503373ffffffffffffffffffffffffffffffffffffffff1660007fddf252ad1be2c89b69c2b068fc378daa952ba7f163c4a11628f55a4df523b3ef836040518082815260200191505060405180910390a35061063a806100dd6000396000f30060806040526004361061006d576000357c0100000000000000000000000000000000000000000000000000000000900463ffffffff16806318160ddd1461007257806370a082311461009d578063a3f4df7e146100f4578063a9059cbb14610184578063f76f8d78146101e9575b600080fd5b34801561007e57600080fd5b50610087610279565b6040518082815260200191505060405180910390f35b3480156100a957600080fd5b506100de600480360381019080803573ffffffffffffffffffffffffffffffffffffffff169060200190929190505050610283565b6040518082815260200191505060405180910390f35b34801561010057600080fd5b506101096102cb565b6040518080602001828103825283818151815260200191508051906020019080838360005b8381101561014957808201518184015260208101905061012e565b50505050905090810190601f1680156101765780820380516001836020036101000a031916815260200191505b509250505060405180910390f35b34801561019057600080fd5b506101cf600480360381019080803573ffffffffffffffffffffffffffffffffffffffff16906020019092919080359060200190929190505050610304565b604051808215151515815260200191505060405180910390f35b3480156101f557600080fd5b506101fe6105d5565b6040518080602001828103825283818151815260200191508051906020019080838360005b8381101561023e578082015181840152602081019050610223565b50505050905090810190601f16801561026b5780820380516001836020036101000a031916815260200191505b509250505060405180910390f35b6000600154905090565b60008060008373ffffffffffffffffffffffffffffffffffffffff1673ffffffffffffffffffffffffffffffffffffffff168152602001908152602001600020549050919050565b6040805190810160405280600a81526020017f4261736963546f6b656e0000000000000000000000000000000000000000000081525081565b60008073ffffffffffffffffffffffffffffffffffffffff168373ffffffffffffffffffffffffffffffffffffffff16141515156103aa576040517f08c379a000000000000000000000000000000000000000000000000000000000815260040180806020018281038252600c8152602001807f556e617574686f72697a6564000000000000000000000000000000000000000081525060200191505060405180910390fd5b6000803373ffffffffffffffffffffffffffffffffffffffff1673ffffffffffffffffffffffffffffffffffffffff168152602001908152602001600020548211151515610460576040517f08c379a000000000000000000000000000000000000000000000000000000000815260040180806020018281038252600c8152602001807f556e617574686f72697a6564000000000000000000000000000000000000000081525060200191505060405180910390fd5b816000803373ffffffffffffffffffffffffffffffffffffffff1673ffffffffffffffffffffffffffffffffffffffff16815260200190815260200160002054036000803373ffffffffffffffffffffffffffffffffffffffff1673ffffffffffffffffffffffffffffffffffffffff16815260200190815260200160002081905550816000808573ffffffffffffffffffffffffffffffffffffffff1673ffffffffffffffffffffffffffffffffffffffff16815260200190815260200160002054016000808573ffffffffffffffffffffffffffffffffffffffff1673ffffffffffffffffffffffffffffffffffffffff168152602001908152602001600020819055508273ffffffffffffffffffffffffffffffffffffffff163373ffffffffffffffffffffffffffffffffffffffff167fddf252ad1be2c89b69c2b068fc378daa952ba7f163c4a11628f55a4df523b3ef846040518082815260200191505060405180910390a36001905092915050565b6040805190810160405280600381526020017f42544e0000000000000000000000000000000000000000000000000000000000815250815600a165627a7a72305820bd7ee4f2aedc6ec49b287c48642e9dbb131a96f15c1da4edbec341ef129b90c10029",
  "source": "pragma solidity ^0.4.24;\n\ncontract BasicToken {\n  mapping(address => uint256) balances;\n  string public constant NAME = \"BasicToken\";\n  string public constant SYMBOL = \"BTN\";\n  uint256 totalSupply_;\n  \n  event Transfer(address indexed from, address indexed to, uint256 values);\n\n  constructor(uint256 INTIAL_SUPPLY) public {\n    totalSupply_ = INTIAL_SUPPLY;\n    balances[msg.sender] = INTIAL_SUPPLY;\n    emit Transfer(0x0, msg.sender, INTIAL_SUPPLY);\n  }\n\n  function totalSupply() public view returns(uint256) {\n    return totalSupply_;\n  }\n\n  function transfer(address _to, uint256 _value) public returns(bool) {\n    require(_to != address(0), \"Unauthorized\");\n    require(_value <= balances[msg.sender], \"Unauthorized\");\n\n    balances[msg.sender] = balances[msg.sender] - _value;\n    balances[_to] = balances[_to] + _value;\n    emit Transfer(msg.sender, _to, _value);\n    return true;\n  }\n\n  function balanceOf(address _owner) public view returns(uint balance) {\n    return balances[_owner];\n  }\n}\n",
  "sourcePath": "/Users/devonwesley/Documents/blockchain_projects/presentations/basic_token/contracts/BasicToken.sol",
  "compiler": {
    "name": "solc",
    "version": "0.4.24+commit.e67f0147.Emscripten.clang"
  },
  "schemaVersion": "2.0.1",
  "updatedAt": "2018-09-08T03:51:51.574Z"
}